{
  "transactions": [
    {
      "hash": "0x68e234e05451caa091e5a6af324b576885c06456eadeebf041a2c587ee5a00d6",
      "transactionType": "CALL",
      "contractName": null,
      "contractAddress": "0xdDA99fE7DF072e2db3543159ac70DeF88d24397C",
      "function": "saveCode(bytes)",
      "arguments": [
        "0x6080806040526004361015601257600080fd5b600090813560e01c636c67217914602857600080fd5b3460675760403660031901126067576004356001600160a01b038116036067576024356bffffffffffffffffffffffff81160360675780600160209252f35b5080fdfea264697066735822122054dc77a9a557d29ab8d0fd37fb436ef977062d55be143ade514be7e068abcefc64736f6c63430008170033"
      ],
      "transaction": {
        "type": "0x02",
        "from": "0xc66a4a1c8b7c7bdc4de74b6d2f9fd8d2839c61bd",
        "to": "0xdda99fe7df072e2db3543159ac70def88d24397c",
        "gas": "0x224b8",
        "value": "0x0",
        "data": "0xd6d38d3f000000000000000000000000000000000000000000000000000000000000002000000000000000000000000000000000000000000000000000000000000000a16080806040526004361015601257600080fd5b600090813560e01c636c67217914602857600080fd5b3460675760403660031901126067576004356001600160a01b038116036067576024356bffffffffffffffffffffffff81160360675780600160209252f35b5080fdfea264697066735822122054dc77a9a557d29ab8d0fd37fb436ef977062d55be143ade514be7e068abcefc64736f6c6343000817003300000000000000000000000000000000000000000000000000000000000000",
        "nonce": "0x1b",
        "accessList": []
      },
      "additionalContracts": [
        {
          "transactionType": "CREATE2",
          "address": "0xA82c0A9b0bf8A83D99977c9bC880FcC4B882E00c",
          "initCode": "0x60806040526100d18038038060128160ac565b928339810190602090818184031260915780516001600160401b03918282116091570183601f8201121560915780519182116096576057601f8301601f1916840160ac565b93828552838383010111609157829060005b838110607e5750506000918401015281519101f35b8181018301518682018401528492016069565b600080fd5b634e487b7160e01b600052604160045260246000fd5b6040519190601f01601f191682016001600160401b0381118382101760965760405256fe000000000000000000000000000000000000000000000000000000000000002000000000000000000000000000000000000000000000000000000000000000a16080806040526004361015601257600080fd5b600090813560e01c636c67217914602857600080fd5b3460675760403660031901126067576004356001600160a01b038116036067576024356bffffffffffffffffffffffff81160360675780600160209252f35b5080fdfea264697066735822122054dc77a9a557d29ab8d0fd37fb436ef977062d55be143ade514be7e068abcefc64736f6c6343000817003300000000000000000000000000000000000000000000000000000000000000"
        }
      ],
      "isFixedGasLimit": false
    }
  ],
  "receipts": [],
  "libraries": [],
  "pending": [
    "0x68e234e05451caa091e5a6af324b576885c06456eadeebf041a2c587ee5a00d6"
  ],
  "returns": {},
  "timestamp": 1704484923,
  "chain": 5,
  "multi": false,
  "commit": "e9ec78e"
}