{
  "transactions": [
    {
      "hash": "0xcdd1c789c3229d9116f2b861d49175df7668148d9e9a85af7801954f63af855c",
      "transactionType": "CALL",
      "contractName": null,
      "contractAddress": "0x5251d54781B64E2e17510f51AFEbEEF489Db49b3",
      "function": "saveCode(bytes)",
      "arguments": [
        "0x6080806040526004361015601257600080fd5b600090813560e01c636c67217914602857600080fd5b3460675760403660031901126067576004356001600160a01b038116036067576024356bffffffffffffffffffffffff81160360675780600160209252f35b5080fdfea264697066735822122054dc77a9a557d29ab8d0fd37fb436ef977062d55be143ade514be7e068abcefc64736f6c63430008170033"
      ],
      "transaction": {
        "type": "0x02",
        "from": "0xc66a4a1c8b7c7bdc4de74b6d2f9fd8d2839c61bd",
        "to": "0x5251d54781b64e2e17510f51afebeef489db49b3",
        "gas": "0x1fb6b",
        "value": "0x0",
        "data": "0xd6d38d3f000000000000000000000000000000000000000000000000000000000000002000000000000000000000000000000000000000000000000000000000000000a16080806040526004361015601257600080fd5b600090813560e01c636c67217914602857600080fd5b3460675760403660031901126067576004356001600160a01b038116036067576024356bffffffffffffffffffffffff81160360675780600160209252f35b5080fdfea264697066735822122054dc77a9a557d29ab8d0fd37fb436ef977062d55be143ade514be7e068abcefc64736f6c6343000817003300000000000000000000000000000000000000000000000000000000000000",
        "nonce": "0x16",
        "accessList": []
      },
      "additionalContracts": [
        {
          "transactionType": "CREATE2",
          "address": "0x03790B84B131D2C35516e61e1aeAf2DD1f276f10",
          "initCode": "0x608060405238601319018060146000396000f3fe6080806040526004361015601257600080fd5b600090813560e01c636c67217914602857600080fd5b3460675760403660031901126067576004356001600160a01b038116036067576024356bffffffffffffffffffffffff81160360675780600160209252f35b5080fdfea264697066735822122054dc77a9a557d29ab8d0fd37fb436ef977062d55be143ade514be7e068abcefc64736f6c63430008170033"
        }
      ],
      "isFixedGasLimit": false
    }
  ],
  "receipts": [],
  "libraries": [],
  "pending": [
    "0xcdd1c789c3229d9116f2b861d49175df7668148d9e9a85af7801954f63af855c"
  ],
  "returns": {},
  "timestamp": 1704482803,
  "chain": 5,
  "multi": false,
  "commit": "ddf90d0"
}